:101000000C9490080C941E390C941E390C941E39C3
:101010000C941E390C941E390C941E390C94252402
:101020000C941E390C941E390C941E390C941E39E4
:101030000C941E390C94C3290C941E390C941E393F
:101040000C941E390C941E390C941E390C941E39C4
:101050000C941E390C947B230C941E390C94632E33
:101060000C94DC2F0C94A22F0C941E390C94812626
:101070000C941E390C941E390C941E390C941E3994
:101080000C94AB320C941E390C941E390C941E39FE
:101090000C941E390C941E390C941E390C941E3974
:1010A0000C941E390C941E390C941E39FA0A070B45
:1010B000380C6F0CA60C650DFE0D260E050F280FC3
:1010C000860FCB1008114C11781188119111A911BC
:1010D000AD1150165D16A316F516F6173F188818B1
:1010E000F318F7186C193A195C19680068EB8068F6
:1010F000ED6B3F00724A6B3F6B45806B456B540054
:10110000749C6B546B9E806B9E6BA00074AB6BA049
:101110006BA2806BA26BA30074AD6BA36BB280005B
:1011200011241FBECFEFCDBFDFE7DEBFEAEEF0E157
:1011300041E117C0B591A59135912591059107FD24
:101140000CC095918591EF01F92FE82F05900D9234
:10115000A217B307D9F7FE0104C01D92A217B30767
:10116000E1F7EF31F40731F70E9404220C94C53700
:10117000F894FFCF2F923F924F925F926F927F929F
:101180008F929F92AF92BF92CF92DF92EF92FF9297
:101190000F931F93CF93DF93CDB7DEB7CE58D1090E
:1011A000CDBFDEBF9E012D573F4FD9018D939C933C
:1011B000CE018D579F4FFC01808191819E012D575B
:1011C0003F4FAC014F5F5F4FD9014D935C93FC01E2
:1011D00080818F3221F08FEF9FEF0C948712CE0128
:1011E0008D579F4FDC018D919C91FC0180818F3246
:1011F000A9F480911A6888A31F8ECE018D579F4F46
:101200009E012D573F4FD9012D913C912F5F3F4FAC
:10121000FC012083318381E0898360C01982CE0183
:101220008D579F4FDC018D919C9162E070E00E9490
:10123000272B8B839C838B819C81019621F48FEFDC
:101240009FEF0C9487128B818F8FCE018D579F4F0C
:101250009E012D573F4FF901208131812E5F3F4F75
:10126000DC012D933C93CE018D579F4FFC01808173
:10127000918162E070E00E94272B8B839C838B819D
:101280009C81019621F48FEF9FEF0C9487128B8144
:1012900088A3CE018D579F4F9E012D573F4FD901F7
:1012A0002D913C912E5F3F4FFC0120833183CE0175
:1012B0008D579F4FDC018D919C919E012D573F4F83
:1012C000AC014F5F5F4FF90140835183DC018C918A
:1012D0008A3321F08FEF9FEF0C9487121B821C82C0
:1012E0001FC08B819C819C012F5F3F4F2B833C83D0
:1012F0009E012D573F4FF90120813181AE014D579D
:101300005F4FB9016F5F7F4FDA016D937C93F901F5
:1013100040819E012D593F4F820F931FDC014C935A
:101320008B819C810D9728F5CE018D579F4FFC0135
:1013300080819181DC018C918C32D9F0CE018D5766
:101340009F4FFC0180819181DC018C918A3389F06F
:10135000CE018D579F4FFC0180819181DC018C91E2
:101360008D3009F0BECF998181E08927882309F06B
:10137000B8CF9E012D593F4F8B819C81820F931FC7
:10138000FC011082CE018D579F4FDC018D919C9105
:10139000FC0180818C3271F4CE018D579F4F9E01EC
:1013A0002D573F4FD9012D913C912F5F3F4FFC01AD
:1013B0002083318323E130E0CE018D599F4FA90175
:1013C00061E97AE60E9416308B879C878B859C8525
:1013D000019649F08B8589A3CE01825A9F4FDC018B
:1013E0001D921C92A7C08FEF9FEF0C9487121B8257
:1013F0001C8231C0CE01825A9F4FDC01ED91FC91DD
:101400002B813C81C90101968B839C83CE018D5732
:101410009F4FDC018D919C91AE014D575F4FBC01F8
:101420006F5F7F4FDA016D937C93DC016C91CF018C
:10143000880F991FAC01440F551F440F551F840F8F
:10144000951FAE014F5F5F4F840F951F820F931F53
:101450008196FC016083CE018D579F4FDC018D91F9
:101460009C91FC018081882319F1CE018D579F4FFB
:10147000DC018D919C91FC0180818C32C9F0CE0100
:101480008D579F4FDC018D919C91FC0180818A33A7
:1014900079F0CE018D579F4FDC018D919C91FC011D
:1014A00080818D3029F08B819C81099708F4A2CF2F
:1014B000CE01825A9F4FDC018D919C91880F991F1C
:1014C0009C01220F331F220F331F820F931F9E0197
:1014D0002F5F3F4F280F391F8B819C81820F931FF5
:1014E0008196FC011082CE01825A9F4FDC018D91C2
:1014F0009C919C012F5F3F4FCE01825A9F4FFC0170
:1015000020833183CE018D579F4FDC018D919C91BB
:10151000FC0180818C3271F4CE018D579F4F9E016A
:101520002D573F4FD9012D913C912F5F3F4FFC012B
:1015300020833183CE018D579F4FDC018D919C918B
:10154000FC0180818823D9F0CE018D579F4FDC01AB
:101550008D919C91FC0180818A3389F0CE018D5759
:101560009F4FDC018D919C91FC0180818D3009F0B1
:101570003ECF998181E08927882309F038CFCE01B9
:101580008D579F4FDC018D919C919E012D573F4FB0
:10159000AC014F5F5F4FF90140835183DC018C91B7
:1015A0008A3349F0998181E08927882321F08FEFE0
:1015B0009FEF0C94871298A180911A68981721F0D8
:1015C00080E090E00C94871289A1882F90E0092E8A
:1015D000000CAA0BBB0B40E050E022E130E0841B82
:1015E000950B2817390708F46CC78A5A974FFC01E6
:1015F0000C94F1388AA1813319F481E08093AB6BAC
:101600008AA1803309F060C71092AB6B5DC71F825F
:1016100018868091BE68813081F48091BF688530E2
:1016200021F481E090E08F8398878091BF688430B7
:1016300021F482E090E08F8398878091BE688630A5
:1016400021F08091BE68883021F483E090E08F83A0
:1016500098871092AA6B00008091AA6B8823E1F30F
:1016600080911468909115680E9488308093E76893
:101670009093E86880911668909117686CE178E61D
:101680000E94AF248093E5689093E6688091BE68DD
:10169000833029F481E090E08B839C8302C01B821D
:1016A0001C829091446881E0992309F480E0882F9E
:1016B00090E08D879E878D859E85880F991F805B22
:1016C0009449DC01AD90BC904091E5685091E6688A
:1016D000CA019695879596958795969587959C01CD
:1016E000A5ECB0E20E945037FC01F295E295EF7054
:1016F000EF27FF70EF2728EE33E0E29FC001E39F62
:10170000900DF29F900D1124FA01E81BF90B8091C6
:10171000E5689091E6689695879596958795969554
:1017200087959C01A5ECB0E20E9450376C01D694DD
:10173000C794D694C794D694C794D694C79400916E
:10174000E7681091E868C801969587959695879502
:10175000969587959C01A5ECB0E20E945037AC01AC
:10176000529542954F7045275F70452728EE33E02C
:10177000429FC001439F900D529F900D1124A801DC
:10178000481B590B8091E7689091E868969587957A
:1017900096958795969587959C01A5ECB0E20E9459
:1017A00050377C01F694E794F694E794F694E79426
:1017B000F694E7940091D4681091D5688F8198854C
:1017C000880F991F805D9449DC010D90BC91A02D7C
:1017D000C357DF4FA883B983CD58D0408091AB6BFE
:1017E000682F70E08F8D282F30E080911A68882F45
:1017F00090E09B2C9F92BA2CBF92BF2EBF92EF938A
:10180000ED2DEF93EC2DEF93E52FEF934F934F2DAD
:101810004F934E2D4F93412F4F93402F4F93C257CD
:10182000DF4F4881CE58D0404F93C357DF4F488198
:10183000CD58D0404F934C814F934B814F93472FBE
:101840004F93462F4F93432F4F932F93292F2F932F
:101850008F938EE799E6892F8F938EE799E68F9382
:101860000E94AE33EDB7FEB77896CDBFDEBF4DC652
:101870008091BE68882309F029C6CE01825A9F4F05
:10188000DC018D919C91019709F022C6CE014F9603
:1018900003960E94D02B8D839E838D819E818137FC
:1018A0009741C8F08D819E8180359644A0F48D814A
:1018B0009E818093DD689093DE688D819E81809308
:1018C0002B6890932C688D819E810E94B930809303
:1018D00004689093056881E08093A66BF7C58091BA
:1018E000BE68882309F0F6C5CE01825A9F4FDC01FD
:1018F0008D919C91019709F0EFC5CE014F9603960B
:101900000E94D02B8D839E838D819E81813797414C
:10191000C8F08D819E8180359644A0F48D819E8192
:101920008093DB689093DC688D819E818093296829
:1019300090932A688D819E810E94B93080930268BD
:101940009093036881E08093A66BC4C58091BE68C4
:10195000882309F0C3C5CE01825A9F4FDC018D91C7
:101960009C91039709F0BCC5CE014F9603960E9447
:10197000D02B8D839E83CE014F960D960E94D02B47
:101980008F87988BCE014F9647960E94D02B898BDC
:101990009A8B8D819E818838934108F492C08D8105
:1019A0009E81893B984808F08CC08F859889892B47
:1019B00051F08F859889019709F083C089899A89A8
:1019C000892B09F47EC08D819E818093DF6890937E
:1019D000E0688D819E8180932D6890932E688D8123
:1019E0009E816CE178E60E94632980930A68909357
:1019F0000B688D819E81CC01A0E0B0E08B8B9C8B2D
:101A0000AD8BBE8B2B893C894D895E898B899C89E6
:101A1000AD89BE89BC01CD010E944037DC01CB01FC
:101A20008093E1689093E268A093E368B093E468E0
:101A30002B893C894D895E898B899C89AD89BE89BA
:101A4000BC01CD010E944037DC01CB0180932F689F
:101A500090933068A0933168B09332688091E168C8
:101A60009091E268A091E368B091E4684CE158E697
:101A7000BC01CD010E947B2ADC01CB0180930C6864
:101A800090930D68A0930E68B0930F688F85988926
:101A9000892B39F081E08093CF6881E080932468BE
:101AA00004C01092CF681092246889899A89809323
:101AB000D0689093D16889899A898093256890939A
:101AC000266881E08093A66B09C58091BE68882353
:101AD00009F008C5CE01825A9F4FDC018D919C917F
:101AE000181619063CF4CE014F9603960E94D02B8F
:101AF0008D839E83CE01825A9F4FFC01808191810C
:101B0000019749F48D819E81892B29F41092C56833
:101B100010921D686FC0CE01825A9F4FDC018D91DB
:101B20009C91049709F0E0C4CE014F960D960E9457
:101B3000D02B8F87988BCE014F9647960E94D02B43
:101B4000898B9A8BCE014F9681960E94D02B8F8BDA
:101B5000988F8D819E81019709F04CC08091DD683E
:101B60009091DE6888519C4F9C018F859889281739
:101B7000390708F03FC08091DB689091DC68885E8F
:101B800093409C0189899A898217930798F58F89D8
:101B9000988D892B79F18F89988D8536910550F52F
:101BA00081E08093C56881E080931D688F85988966
:101BB0008093CB689093CC688F85988980931E68BA
:101BC00090931F6889899A898093CD689093CE6895
:101BD00089899A8980932068909321688F89988D4C
:101BE0008093C9689093CA688F89988D8093226882
:101BF0009093236881E08093A66B74C4CE01825ACF
:101C00009F4FFC0180819181019709F06FC4CE0143
:101C10004F9603960E94D02B8D839E838D819E814B
:101C2000892B29F41092C46810921C680BC08D8116
:101C30009E81019709F05CC481E08093C46881E0D3
:101C400080931C6881E08093A66B5FC49091C56807
:101C500081E08927882319F01D821E8204C081E05B
:101C600090E08D839E8380910168682F70E0809161
:101C7000BD68A82FB0E08091C468E82EF12C2091B7
:101C8000416830914268CB57DF4F28833983C5586C
:101C9000D04020913D6830913E6840913F6850911E
:101CA00040688091C9689091CA68C957DF4F88839E
:101CB0009983C758D040E091CD68F091CE68C7575E
:101CC000DF4FE883F983C958D0408091CB68909169
:101CD000CC68C557DF4F88839983CB58D04020907C
:101CE000D0683090D1688091CF68482E512C609098
:101CF000DF687090E0688090DB689090DC68A0906E
:101D0000DD68B090DE68C090B968D090BA688F8DF9
:101D1000082F10E080911A68E82FF0E0872F8F934A
:101D2000862F8F938B2F8F938A2F8F938F2D8F9347
:101D30008E2D8F93CA57DF4F8881C658D0408F931E
:101D4000CB57DF4F8881C558D0408F93852F8F9315
:101D5000842F8F93832F8F93822F8F93C857DF4FBA
:101D60008881C858D0408F93C957DF4F8881C758A2
:101D7000D0408F93C657DF4F8881CA58D0408F9389
:101D8000C757DF4F8881C958D0408F93C457DF4F62
:101D90008881CC58D0408F93C557DF4F8881CB586E
:101DA000D0408F938E818F938D818F93832D8F93CE
:101DB000822D8F93852D8F93842D8F93872D8F93D5
:101DC000862D8F93892D8F93882D8F938B2D8F93B5
:101DD0008A2D8F938D2D8F938C2D8F93812F8F93A1
:101DE000802F8F938F2F8F938E2F8F9387EB99E672
:101DF000892F8F9387EB99E68F930E94AE33ADB70F
:101E0000BEB79696CDBFDEBF80C38F8D282F30E042
:101E100080911A68882F90E04BE15BE6452F4F9345
:101E20004BE15BE64F93432F4F932F93292F2F9333
:101E30008F9384E09AE6892F8F9384E09AE68F93BC
:101E40000E94AE33EDB7FEB73896CDBFDEBF5DC39F
:101E50008091BE68833009F04DC3CE01825A9F4FF6
:101E6000DC018D919C91019709F046C3CE014F96FC
:101E700003960E94D02BCC01A0E0B0E0BC01CD01C4
:101E80000E94292FDC01CB018093546B9093556BFA
:101E9000A093566BB093576B8091546B9091556B98
:101EA000A091566BB091576B20E030E84BE355E4BE
:101EB000BC01CD010E94FD3888235CF41092546B64
:101EC0001092556B1092566B1092576B1092A56B37
:101ED0001CC31092AA6B00008091AA6B8823E1F3C7
:101EE000809116689091176880935C6B90935D6BFE
:101EF00080915C6B90915D6B8536910520F081E05F
:101F00008093A56B02C31092A56BFFC28091BE683F
:101F1000833071F49091A56B81E08927882341F487
:101F2000CE01825A9F4FFC0180819181019719F067
:101F30001092A56BEAC2CE014F9603960E94D02B59
:101F4000CC01A0E0B0E0BC01CD010E94292FDC0152
:101F5000CB018093586B9093596BA0935A6BB093BD
:101F60005B6B8091546B9091556BA091566BB091C7
:101F7000576B20E030E44CE955E4BC01CD010E94F0
:101F8000CF38DC01CB017C018D018091586B9091A1
:101F9000596BA0915A6BB0915B6B9C01AD01C8016C
:101FA000B7010E94023988231CF01092A56BADC2C4
:101FB0001092AA6B00008091AA6B8823E1F38091B4
:101FC00016689091176880935E6B90935F6B209179
:101FD0005E6B30915F6B80915C6B90915D6BA90142
:101FE000481B590BCA01893C910508F4D1C0809166
:101FF000586B9091596BA0915A6BB0915B6B20918B
:10200000546B3091556B4091566B5091576BBC019E
:10201000CD010E94CE38DC01CB016C017D01209105
:102020005E6B30915F6B80915C6B90915D6BD901C1
:10203000A81BB90BCD01CC01A0E0B0E0BC01CD01E3
:102040000E94292FDC01CB019C01AD01C701B60123
:102050000E940B39DC01CB0180933D6890933E6870
:10206000A0933F68B0934068C090586BD090596B74
:10207000E0905A6BF0905B6B80903D6890903E686A
:10208000A0903F68B090406880915E6B90915F6BCC
:10209000CC01A0E0B0E0BC01CD010E94292FDC0101
:1020A000CB019C01AD01C501B4010E940F39DC01D7
:1020B000CB019C01AD01C701B6010E94CE38DC0105
:1020C000CB01BC01CD010E94D538DC01CB0180934E
:1020D0004168909342688091416890914268092ECE
:1020E000000CAA0BBB0BBC01CD010E942B2F2B01B6
:1020F0003C01C090546BD090556BE090566BF090C3
:10210000576B80903D6890903E68A0903F68B0907B
:10211000406880915C6B90915D6BCC01A0E0B0E079
:10212000BC01CD010E94292FDC01CB019C01AD0136
:10213000C501B4010E940F39DC01CB019C01AD0146
:10214000C701B6010E94CE38DC01CB019C01AD0174
:10215000C301B2010E94CF38DC01CB01BC01CD012B
:102160000E94D538DC01CB0180934168909342688E
:10217000809141689091426899230CF4019695955D
:102180008795809341689093426881E08093A66B25
:102190001092A56BBAC1CE01825A9F4FFC0180817B
:1021A0009181029709F0AAC1CE014F9603960E9431
:1021B0006F20DC01CB01898F9A8FAB8FBC8F20E021
:1021C00030E0A901698D7A8D8B8D9C8D0E94FD3840
:1021D00018160CF095C1CE014F960D960E94C62799
:1021E0008D8F9E8F898D9A8DAB8DBC8D80933D6830
:1021F00090933E68A0933F68B09340688D8D9E8D0C
:10220000809341689093426881E08093A66B7DC182
:102210000091376810913868E0913368F091346824
:1022200060913568709136688091396890913A680C
:10223000A0913B68B0913C682F8D422F50E02091D7
:102240001A68222F30E0F12EFF92102F1F931F2FBC
:102250001F93EF93E72FEF936F936B2F6F936A2F7B
:102260006F93692F6F938F93852F8F93842F8F9305
:10227000832F8F93822F8F9380E29AE6892F8F93FB
:1022800080E29AE68F930E94AE332DB73EB7205F6F
:102290003F4FCDBFDEBF39C1CE01825A9F4FDC0117
:1022A0008D919C91019709F02DC1CE014F96039617
:1022B00062E070E00E94272B8B839C838B819C8142
:1022C000181619060CF021C18B819C818F3F910556
:1022D00011F00CF01AC18B8180931A688B819C815C
:1022E0008093B9689093BA6881E08093A66B0DC122
:1022F00010923568109236681092336810923468E4
:10230000109237681092386881E08093A66BFDC008
:1023100081E08093AE6B80EA9BE58093EB689093BD
:10232000EC68CE01825A9F4FFC0180819181029717
:1023300009F0EAC0CE014F9603960E94D02B8093FD
:10234000AC6BCE014F960D960E94D02B8093AD6B57
:10235000DCC081E08093AE6BD8C01A8219861A86E1
:1023600017C08A8191E0980F9A83882F90E0298581
:102370003A853F5ED9014C919E0120593F4F820F13
:10238000931FFC01408389859A85019689879A87E6
:1023900089859A85039728F31A8280E190E08987DE
:1023A0009A8717C08A8191E0980F9A83882F90E0CE
:1023B00029853A853F5ED9014C919E012D583F4FAA
:1023C000820F931FFC01408389859A850196898736
:1023D0009A8789859A85809728F38F8D282F30E0FA
:1023E00080911A68882F90E0432F4F932F93292FC5
:1023F0002F938F9388E49AE6892F8F9388E49AE647
:102400008F930E94AE330F900F900F900F900F900C
:102410000F901A821FC08A81882F90E09E01205958
:102420003F4F820F931FDC018C91882F90E0292F62
:102430002F938F938FE59AE6892F8F938FE59AE6F6
:102440008F930E94AE330F900F900F900F908A8160
:102450008F5F8A838A818330F0F28CE290E00E9461
:10246000DB371A821FC08A81882F90E09E012D5889
:102470003F4F820F931FFC018081882F90E0292F0E
:102480002F938F938FE59AE6892F8F938FE59AE6A6
:102490008F930E94AE330F900F900F900F908A8110
:1024A0008F5F8A838A818131F0F284E69AE6892FF0
:1024B0008F9384E69AE68F930E94AE330F900F902D
:1024C00024C08FEF9FEF23C000001FC000001DC07D
:1024D00000001BC0000019C0000017C0000015C09C
:1024E000000013C0000011C000000FC000000DC0AC
:1024F00000000BC0000009C0000007C0000005C0BC
:10250000000003C0000001C0000080E090E0C2575E
:10251000DF4FCDBFDEBFDF91CF911F910F91FF90B5
:10252000EF90DF90CF90BF90AF909F908F907F9073
:102530006F905F904F903F902F900895A5E2B0E08C
:10254000E4EAF2E10C947D338E8F9F8F6E8B7F8B4C
:10255000298FFB010190F081E02DE987FA87FB01CB
:1025600002811381248135812A8B3B8B8085918563
:1025700088A399A326803780FA0180809180A28069
:10258000B38020E030E0A901C501B4010E94FD380C
:1025900087FF06C0B7FAB094B7F8B0948DE204C0D4
:1025A000598552FF54C38BE2F10180832A893B890C
:1025B000215031092B833C8341E050E0488B598BFB
:1025C00006C08A899B898B839C83188A198AD501C6
:1025D000C401BF770097E0E8AE07EFE7BE0799F4C4
:1025E000F98D2F2FFF0F330B2154310988899989D9
:1025F000820D931D2A31310518F46BE07BE619C07A
:102600006FE07BE616C00197A048BF47A8F0498D50
:10261000242F440F330B2154310988899989820D65
:10262000931D2A31310518F463E17BE602C067E1AE
:102630007BE60E94BE38FAC220E030E0A901C50165
:10264000B4010E94FD38C12CD12C20E8E22E2FE3EA
:10265000F22E19821A82882309F48CC08D829E8200
:10266000AF82B88620E030E040E251E4C701B60115
:102670000E940F392B013C01D501C4018419950931
:10268000A609B709B7FF07C0B095A09590958195A9
:102690009F4FAF4FBF4F0297A105B10544F4898109
:1026A0009A81019689839A8373016201DBCFA50128
:1026B0009401C301B2010E94FD3887FDF0CF8D81E6
:1026C0009E81AF81B8858C199D09AE09BF0901961D
:1026D000A11DB11D0397A105B10508F449C01D82D4
:1026E0001E82A5019401C701B6010E940239181685
:1026F0000CF040C0E981FA81E43DFE4FE4F44D81E5
:102700005E81452BC1F420E030E040E85AE5C50188
:10271000B4010E940F394B015C0120E030E040E839
:102720005AE5C701B6010E940F396B017C0181E0B7
:1027300090E08D839E8320E030E040E251E4C701C9
:10274000B6010E940B396B017C01E981FA81319756
:10275000E983FA83D501C4018C199D09AE09BF092B
:102760000196A11DB11D0397A105B10508F0B9CFD0
:1027700046015701F98D8F2FFF0F990B0E94C63824
:10278000888F17FD03C00D831E8304C026E030E050
:102790002D833E83388D373639F4012B41F441E0E7
:1027A00050E04D835E8303C0288D2F8714C089813C
:1027B0009A818C3F9F4F0CF44FC289819A81ED81A1
:1027C000FE818E179F070CF047C229813A8137FF9F
:1027D00046C236E63F874D815E814F5F5F4F4D8336
:1027E0005E835F855636B9F489819A8197FF08C068
:1027F000C12CD12C90E8E92E9FE3F92E19821A8280
:10280000988D973641F0ED81FE8129813A81E20F62
:10281000F31FED83FE831C2DDCA2EAA20F2D8B8615
:102820009C86AD86BE861C8A1D8A8C899D89ED8119
:10283000FE818E179F07DCF5212F3CA14AA1502F66
:102840006B857C858D859E850E940B390E942D2588
:102850002B013C010E94D5386A8FA3019201612FA0
:102860007CA18AA1902F0E940F392B853C854D8534
:102870005E850E94CE389B01AC0150582B873C8767
:102880004D875E8720E030E040E251E4612F7CA17B
:102890008AA1902F0E940B39162F7CA38AA3092F9F
:1028A0004C895D894F5F5F4F4C8B5D8BBECF20E0C5
:1028B00030E040EA50E4612F7CA18AA1902F0E9471
:1028C0000F392B013C019B01AC016B857C858D850B
:1028D0009E850E94FD3887FD0DC0A30192016B8586
:1028E0007C858D859E850E94FD38811106C0FA8DFC
:1028F000F0FD03C0412C512C3201A5019401C3010C
:10290000B2010E94CF384B015C0120E030E040E290
:1029100051E4C701B6010E940F396B877C8B182FD9
:10292000092F9B01482F592FC501B4010E9402397C
:1029300087FD14C029813A812F5F3F4F29833A8355
:102940003F85363679F44D815E814F5F5F4F4D8311
:102950005E835B855CA38C898DA30BC0CB86DC8AF0
:102960001E2D0F2D9F85953639F0EB85ECA3FC8944
:10297000FDA3E980FA8006C02B852CA33C893DA3EA
:10298000E12CF12C48885988C12CD12C1C8A1D8A35
:102990001B861C8649855A85407155274AA35BA32F
:1029A0002B853C854D815E812417350734F08C8959
:1029B0009D89892B09F494C09FC03201EE89FF895B
:1029C0008085918505974816590688F72CA13DA169
:1029D000412F502FC501B4010E940B390E942D25B3
:1029E0006A8F7B8F8C8F9D8F0E94D5386A307105DE
:1029F00014F069E070E08AA19BA1892B69F461154C
:102A0000710551F4988D973639F4F7FE05C03601FB
:102A1000EFEF6E1A7E0A38C02C893D89232B99F47A
:102A2000F7FE11C03FEF431A530AF101E60DF71DFF
:102A30004EE240838B819C8101978B839C83E1E0F4
:102A4000F0E0EC8BFD8BF101E40DF51D3601611416
:102A5000710431F020E3219331E0631A7108F7CF5C
:102A6000C601840D951D2B813C812C193D092C013B
:102A70004FEF441A540AF101E80FF91F605D6083BB
:102A8000C90101978B839C832A8D3B8D4C8D5D8D75
:102A90006CA17DA1812F902F0E940F39A501940177
:102AA0000E94CE384B015C01B7FAB094B7F8B094ED
:102AB00020E030E040E251E46CA17DA1812F902F15
:102AC0000E940B396CA37DA3182F092F91E0E91AFE
:102AD000F108EB85FC853196EB87FC87630160CFBD
:102AE000F985F4FF09C0F101E40DF51D8EE2808344
:102AF00092012F5F3F4F2901A101440D551D4D83C8
:102B00005E83FA011082FF85F53609F063C0E8A103
:102B1000F9A1E20DF31D3197108229813A8137FF27
:102B200008C031952195310929833A8301E010E0ED
:102B300002C000E010E0E8A1F9A13197E20DF31D19
:102B400022E030E08AE0E82EF12CCF0182199309CF
:102B500049815A81452B91F089819A81B7010E9460
:102B60002835805D829369837A83215031094B81B6
:102B70005C81415051094B835C83E7CF12161306E9
:102B80005CF3FC013197E20DF31D012B11F42BE2F4
:102B900001C02DE220830297B101680F791F598D82
:102BA000252F550F330B215431092A31310510F0EF
:102BB00025E601C025E4FB0120832B813C812250C6
:102BC00031092B833C834816590624F48D819E815C
:102BD0000E94BE38398531FF29C030FD27C04B81A6
:102BE0005C811416150614F5C1010E948937820D07
:102BF000931D9C01221933094889598924173507E7
:102C00004CF0FC012081EB81FC81E80FF91F20834F
:102C10000197EFCF4B815C8160E370E088899989EF
:102C2000820D931D0E94E4371A8A1B8AC1010E94FB
:102C3000893709851A852A893B89AC01B1018E8DB6
:102C40009F8D0E944F30A596E2E10C94DE335985AA
:102C500053FFB7CC80E2A8CCF5E6FF87DCCD36E6A3
:102C60003F87D9CDCF93DF9300D0CDB7DEB789832F
:102C70009A838091BE68882F90E0092E000CAA0BE1
:102C8000BB0B40E050E02BE030E0841B950B281795
:102C9000390708F41BC38759974FFC010C94F1388E
:102CA0000E945F37882309F419C38091BE6880931E
:102CB000BF6881E08093BE6811C30E945F3788239C
:102CC00059F41092AD6B1092AC6B8091BE688093FA
:102CD000BF681092BE6815C31092AA6B0000809165
:102CE000AA6B8823E1F320911468309115688091D4
:102CF0000468909105688C599F4F281739070CF488
:102D0000EFC220911468309115688091026890910B
:102D1000036884569109821793070CF4E1C210925C
:102D2000C6681092C7681092C86885E090E08093EA
:102D3000D9689093DA688091BE688093BF6882E01A
:102D40008093BE68CDC289819A81892B71F02091D0
:102D5000D9683091DA6889819A81A901481B590B99
:102D6000CA018093D9689093DA688091D96890916C
:102D7000DA68181619060CF4B5C21092AA6B000096
:102D80008091AA6B8823E1F3209114683091156833
:102D900080910468909105688C599F4F28173907D6
:102DA000E4F0209114683091156880910268909148
:102DB000036884569109821793077CF01092196872
:102DC0001092A96B81E00E9444328091BE6880938A
:102DD000BF6883E08093BE6894C28091BE68809390
:102DE000BF6881E08093BE688CC28091A96B882304
:102DF000E1F08091BE688093BF688091196881304E
:102E000019F484E08093BE6880911968823019F4C7
:102E100085E08093BE6880911968833019F486E05C
:102E20008093BE681092A96B6CC289819A81892BAC
:102E3000E9F12091396830913A6840913B685091AE
:102E40003C6889819A81092E000CAA0BBB0B820F6A
:102E5000931FA41FB51F8093396890933A68A0937D
:102E60003B68B0933C688091D6688823F9F0209144
:102E7000D7683091D86889819A81F901E81BF90BEC
:102E8000CF018093D7689093D8688091D76890914C
:102E9000D8681816190654F01092D7681092D8689E
:102EA0001092D6681092D4681092D5680E945F374D
:102EB000882351F480E00E9444328091BE68809360
:102EC000BF681092BE681DC28091C568882309F44E
:102ED0000BC21092AA6B00008091AA6B8823E1F3C9
:102EE00080911468909115680E9488309C018091AF
:102EF000CD689091CE688217930738F41092C76816
:102F00001092C8681092C668EFC18091C668882385
:102F100009F448C089819A81892B09F4E5C120917F
:102F2000C7683091C86889819A81A901481B590BEB
:102F3000CA018093C7689093C8688091C7689091D0
:102F4000C868892B59F08091C7689091C8688C3205
:102F5000914020F482E08093AC6B03C084E08093C6
:102F6000AC6B8091C7689091C868892B51F08091B3
:102F7000C7689091C8688436910518F483E08093FF
:102F8000AC6B8091C7689091C868892B09F0ACC17F
:102F900080E00E94443281E08093AC6B8AE08093B1
:102FA000BE68A2C180911468909115680E94883013
:102FB0009C018091CB689091CC682817390708F064
:102FC00093C14091C9685091CA6828E532E0429F98
:102FD000C001439F900D529F900D11248093C768AC
:102FE0009093C86881E08093C6687EC18091D9685B
:102FF0009091DA68892B81F480E00E94443284E069
:103000008093AD6B81E08093AC6B85E090E0809322
:10301000D9689093DA686AC189819A81892B09F409
:1030200065C12091D9683091DA6889819A81F90166
:10303000E81BF90BCF018093D9689093DA688091EF
:10304000D9689091DA68181619060CF44FC11092DD
:10305000D9681092DA688091356890913668019647
:10306000809335689093366881E08093A66B809159
:10307000BE688093BF6887E08093BE6837C1809147
:10308000D9689091DA68892BE1F480E00E9444329B
:1030900084E08093AD6B83E08093AC6B85E090E03F
:1030A0008093D9689093DA688091336890913468FE
:1030B0000196809333689093346881E08093A66B87
:1030C00017C189819A81892B09F412C12091D9688D
:1030D0003091DA6889819A81A901481B590BCA018C
:1030E0008093D9689093DA688091D9689091DA6872
:1030F000181619060CF4FCC01092D9681092DA6800
:103100008091BE688093BF6887E08093BE68F0C0FE
:1031100080E00E94443284E08093AD6B9091CF6850
:1031200081E08927882351F48091D6688823C9F0EB
:103130008091D4689091D56803979CF00E945F3786
:103140008823D9F51092AD6B1092D6681092D4688E
:103150001092D5688091BE688093BF681092BE6857
:103160002CC08091D0689091D168880F991F9C01E4
:10317000220F331F220F331F820F931F8093D968B2
:103180009093DA6881E08093D6682091D06830917E
:10319000D16842E3429FC001439F900D1124809368
:1031A000D7689093D8688091BE688093BF6888E0A4
:1031B0008093BE6882E08093AD6B8091BE68882367
:1031C00029F08091BE68883009F094C080913768FA
:1031D000909138680196809337689093386881E0C1
:1031E0008093A66B87C081E08093BE688AC00E94EE
:1031F0005F37882379F41092AD6B1092D6681092E5
:10320000D4681092D5688091BE688093BF68109290
:10321000BE6877C089819A81892B09F46DC020919D
:10322000D9683091DA6889819A81F901E81BF90B34
:10323000CF018093D9689093DA688091D968909192
:10324000DA68181619060CF457C01092D968109253
:10325000DA688091D4689091D56801968093D4689B
:103260009093D5688091BE688093BF6881E0809319
:10327000BE6842C00E945F37882329F41092AC6B6D
:103280001092BE683BC01092AA6B00008091AA6B9E
:103290008823E1F380911468909115680E9488302A
:1032A0009C018091CD689091CE688217930730F58C
:1032B00081E08093BE6822C083E08093AD6B0E9462
:1032C0005F378823E9F41092BE681AC080E00E943C
:1032D00044321092BE6815C0000013C0000011C037
:1032E00000000FC000000DC000000BC0000009C0AE
:1032F000000007C0000005C0000003C0000001C0BE
:10330000000000000F900F90DF91CF910895AEE084
:10331000B0E0EDE8F9E10C9480334C016B011982C7
:103320001A828FEF9FEF8B839C831D821E824F83B7
:10333000588729873A87A12CB12CD6016D907C90B3
:10334000F301EA0DFB1D808181110FC0D601ED93C1
:10335000FC938081853209F0D3C13F01BFEF6B1A26
:103360007B0AF6016082718219C0853279F3B4015B
:10337000082E000C990B0E946B2C4FEFA41AB40A74
:10338000DCCF8C32ACF08D32F9F489819A81816086
:1033900089839A833196D601ED93FC93D601ED9102
:1033A000FC9180818B3269F789819A818460F0CFAA
:1033B000803221F489819A818860EACF833251F486
:1033C00089819A818061E4CF803321F489819A8157
:1033D0008260DECFB701C6010E9477318D839E8364
:1033E00097FF0BC029813A81B1E02B2729833A83CB
:1033F0009195819591098D839E8389819A8180FF22
:1034000003C08D7F89839A83D601ED91FC9111973A
:1034100080818E3249F43196ED93FC93B701C60159
:103420000E9477318B839C83C6010E94CB32582E39
:10343000D601ED91FC918081082E000C990B0E9421
:10344000C638893609F443C084F4833609F402C1CE
:1034500034F4853209F427C18136E1F030C1843675
:10346000B1F188360CF4D9C02AC1803709F49AC06A
:103470003CF48E3609F4BCC08F3609F461C01FC11C
:10348000853709F440C0883709F476C0833709F0DE
:1034900016C1F3C0652D70E0A701CE010B960E9406
:1034A000EB32892B09F426C1D601ED91FC911197DD
:1034B000CF0101968D939C932081AE01455F5F4FB4
:1034C000BE016F5F7F4FC4010E94000010C1652DD7
:1034D00070E0970141E050E0CE010B960E942F284A
:1034E000892B09F407C1F6018081918101968083BF
:1034F0009183AE01455F5F4FBE016F5F7F4FC40197
:103500000E94A025F4C0652D70E0970140E050E0D6
:10351000CE010B960E942F28892B09F4EBC0D6010F
:103520008D919C91119701968D939C93AE01455F6F
:103530005F4FBE016F5F7F4FC4010E94912DD7C0C6
:10354000652D70E0970140E050E0CE010B960E949F
:103550002F28892B09F4CEC0F60180819181019634
:1035600080839183AE01455F5F4FBE016F5F7F4FE8
:10357000C4010E94222ABBC0652D70E0970140E083
:1035800050E0CE010B960E942F28892B09F4B2C07F
:10359000D601ED91FC911197CF0101968D939C93EB
:1035A00020811CC0970140E050E060EF70E0CE0148
:1035B0000B960E942F28892B09F49CC0F60180816C
:1035C00091810196808391838B859C85892B29F439
:1035D00020E030E045E45BE684C028E7AE01455FCB
:1035E0005F4FBE016F5F7F4FC4010E94811F7FC08C
:1035F000A501400F511F652D70E09701CE010B967C
:103600000E940000892B09F475C0D6018D919C9110
:10361000119701968D939C9373C0652D70E0A7015F
:10362000CE010B960E94EB32892B09F463C0D601C0
:10363000ED91FC911197CF0101968D939C93208180
:10364000AE01455F5F4FBE016F5F7F4FC4010E94B7
:103650009E124DC0B0E85B124DC0F6018081918191
:10366000019680839183D701ED91FC911197CF0151
:1036700002968D939C93808120C0B0E85B123AC083
:10368000F60180819181019680839183D701ED912C
:10369000FC911197CF0102968D939C9340815181AB
:1036A00020E030E01EC0B0E85B1224C0F6012081AB
:1036B00031812F5F3F4F208331838B870DC085E29F
:1036C0008B87D6016D927C9219821A821D821E828E
:1036D0008FEF9FEF8B839C8321E030E0AE01455F4D
:1036E0005F4FBE016F5F7F4FC4010E94D1318A0DD1
:1036F0009B1D07C0F6018081918101968083918393
:10370000C5012E96EFE00C94E133CF93DF93CDB754
:10371000DEB70E94973786E090E1FC018081882F18
:1037200090E081709927892BB1F748E250E060E082
:1037300070E08CE198E60E94133986E090E1FC018C
:103740008081882F90E081709927892BB1F745E01F
:1037500050E068E270E087EB98E60E94133910921F
:10376000AF6B68E270E08CE198E60E94D22A982F55
:1037700081E08927882361F088E2E9E6FAE6ACE196
:10378000B8E601900D928A95E1F781E08093AF6BE6
:1037900065E070E087EB98E60E94D22A982F81E0DE
:1037A0008927882361F085E0EBE4FBE6A7EBB8E628
:1037B00001900D928A95E1F781E08093AF6B809143
:1037C000AF6B882319F081E08093A66B88E090E0CE
:1037D000FC01828180958F7080931A6880911A68AD
:1037E0008093BD6880911A68882331F48091B9680C
:1037F0009091BA6880931A688CE090E0FC01828115
:1038000082958F708093BC688091BC6880958F7022
:103810008093BC688091BC688093016880912B681C
:1038200090912C688093DD689093DE688091296880
:1038300090912A688093DB689093DC6880911C6883
:103840008093C4688091BC68882309F049C0809146
:1038500024688093CF688091256890912668809332
:10386000D0689093D1688091276890912868809360
:10387000D2689093D36880912D6890912E68809340
:10388000DF689093E06880912F6890913068A091F4
:103890003168B09132688093E1689093E268A093B8
:1038A000E368B093E46880911D688093C568809157
:1038B0001E6890911F688093CB689093CC6880912C
:1038C0002068909121688093CD689093CE68809114
:1038D0002268909123688093C9689093CA68A2C0B7
:1038E0008091BC68863058F41092CF681092D068EE
:1038F0001092D1681092D2681092D36831C0809132
:10390000BC68803168F581E08093CF681092C5680B
:1039100085E090E08093D0689093D16883E090E058
:103920008093D2689093D3688091BC688B3018F4F0
:103930001092C56815C081E08093C56880E092E36D
:103940008093CB689093CC6884EF93E38093CD68A9
:103950009093CE688AE090E08093C9689093CA689B
:103960008091BC68803108F04BC08091BC68863083
:1039700048F08091BC688B3028F48091BC688550F9
:103980008093BC688091BC688B3028F08091BC68C3
:103990008A508093BC688091BC68882F90E09C011D
:1039A00021503109C901880F991F820F931F880F79
:1039B000991F89549549FC01808191818093DF682A
:1039C0009093E0688091BC68882F90E09C01215022
:1039D0003109C901880F991F820F931F880F991F02
:1039E00087549549FC0180819181A281B3818093A4
:1039F000E1689093E268A093E368B093E46812C032
:103A000080E797E18093DF689093E06880E89AEB25
:103A1000ACE8B1E08093E1689093E268A093E3683A
:103A2000B093E4688091DD689091DE680E94B930BF
:103A300080930468909305688091DB689091DC68BE
:103A40000E94B93080930268909303688091DF6888
:103A50009091E0686CE178E60E94632980930A689F
:103A600090930B688091E1689091E268A091E3687F
:103A7000B091E4684CE158E6BC01CD010E947B2A7C
:103A8000DC01CB0180930C6890930D68A0930E68C5
:103A9000B0930F6884EF91E0809306689093076875
:103AA000109219680000DF91CF910895CF93DF93B2
:103AB000CDB7DEB780E094E021E0FC01248380E410
:103AC00094E0FC01148280E694E0FC01148280EA18
:103AD00094E0FC01148280E094E029E2FC01208360
:103AE00080E494E0FC01108280E694E02EE0FC018A
:103AF000208380EA94E021E0FC01208380E094E0D0
:103B000028E0FC01208B80E094E0FC01118A80E039
:103B100094E0FC01128A80E094E0FC01138A80E0CA
:103B200094E0FC01148A80E094E0FC01158A80E0B6
:103B300094E0FC01168A80E094E0FC01178A80E49E
:103B400094E028E0FC01208B80E494E028E0FC0174
:103B5000218B80E494E028E0FC01228B80E494E057
:103B600028E0FC01238B80E494E0FC01148A80E4CB
:103B700094E0FC01158A80E494E0FC01168A80E45C
:103B800094E0FC01178A80E694E028E0FC01208B99
:103B900080E694E0FC01118A80E694E0FC01128A40
:103BA00080E694E0FC01138A80E694E028E0FC01C2
:103BB000248B80E694E028E0FC01258B80E694E0ED
:103BC00028E0FC01268B80E694E028E0FC01278BAE
:103BD00080EA94E0FC01108A80EA94E0FC01118AFA
:103BE00080EA94E0FC01128A80EA94E0FC01138AE6
:103BF00080EA94E0FC01148A80EA94E0FC01158AD2
:103C000080EA94E0FC01168A80EA94E0FC01178ABD
:103C100080EE95E0FC01128680EE95E0FC011182B9
:103C200080EE95E0FC01108280EE95E0FC011582AB
:103C300080EE95E0FC01178280EE95E0FC01108695
:103C400080EE95E0FC01168280EE95E0FC01128288
:103C500080EE95E0FC01138286EF97E30E945035D9
:103C60008EEF97E30E94633586E098E30E947635F5
:103C70008EE098E30E94893586E198E30E949C35A6
:103C80008EE198E30E94AF3586E298E30E94C23548
:103C90008EE298E30E94D53586E398E30E94E835EA
:103CA0008EE398E30E94FB3586E498E30E940E368B
:103CB0008EE498E30E94213686E598E30E9434362C
:103CC0008EE598E30E94473686E698E30E945A36CE
:103CD0008EE698E30E946D3686E798E30E94803670
:103CE0008EE798E30E9493360000DF91CF9108950C
:103CF000EF92FF920F931F93CF93DF93CDB7DEB771
:103D00002897CDBFDEBF85E694E028E0FC01208344
:103D10008091A76B8F5F8093A76B8091A76B843690
:103D200038F08091A86B8F5F8093A86B1092A76B7F
:103D30008AE10E94A531DC01CB0189839A838981C4
:103D40009A819695879589839A838BE10E94A53104
:103D5000DC01CB018B839C838B819C81969587951D
:103D60008B839C8380910468909105689C018B8172
:103D70009C818217930718F58091086890910968D3
:103D800001968093086890930968209108683091A3
:103D900009688091066890910768821793077CF400
:103DA00086E094E020E2FC01208381E080931968A2
:103DB000109208681092096881E08093A96B809145
:103DC0000268909103689C018B819C8128173907B8
:103DD00058F486E094E020E2FC01208382E08093A6
:103DE000196881E08093A96B80910A6890910B68B3
:103DF0009C0189819A8128173907C0F589819A81A8
:103E0000CC01A0E0B0E08D839E83AF83B887809122
:103E1000106890911168A0911268B09113687C01AC
:103E20008D012D813E814F8158858D819E81AF818D
:103E3000B885BC01CD010E944037DC01CB0128EEE2
:103E400033E040E050E0BC01CD010E946732DA016E
:103E5000C9018E0D9F1DA01FB11F80931068909304
:103E60001168A0931268B093136808C0109210688C
:103E700010921168109212681092136820911068C5
:103E800030911168409112685091136880910C68CC
:103E900090910D68A0910E68B0910F6882179307FA
:103EA000A407B5075CF486E094E020E2FC012083DF
:103EB00083E08093196881E08093A96B8091AA6B5D
:103EC000882379F489819A81809316689093176882
:103ED0008B819C81809314689093156881E0809316
:103EE000AA6B86E694E028E0FC0120830000289677
:103EF000CDBFDEBFDF91CF911F910F91FF90EF906B
:103F00000895AFE0B0E0E7E8FFE10C947D331C01D9
:103F10006B0149835A832B83FB01828193818480C7
:103F2000958000811181A680B78097FD02C00D7F2A
:103F300002C081E090E0E981FA8140805180628096
:103F400073809801207133272C833D83740104FF13
:103F500008C0411451046104710419F032E0E31AFD
:103F6000F108F801E870FF27EE83FF8303FF03C029
:103F7000F1E0EF1AF108F6010084F185E02D3197A8
:103F8000EE87FF87EA0DFB1D10829C012E193F0969
:103F900028873987C801827099278A879B87EB8198
:103FA0008E2FEE0F990B9C01215431092C873D87F0
:103FB0002E853F852230310530F48C819D81892BFF
:103FC00009F042C05CC0411451046104710461F104
:103FD0008E859F8501978E879F87C2018F70992755
:103FE0008A30910514F4C09602C0895A9F4FEC851F
:103FF000FD857A9748F49C012062215631092A31C7
:10400000310510F40E94ED37EE85FF85EA0DFB1DAA
:104010008083F1E0EF1AF10884E076946794579476
:1040200047948A95D1F7C4CF888599858E0D9F1DB9
:10403000181619066CF21E141F040CF0BECFEA8588
:10404000FB85EF2B29F6B9CFE981FA818081918137
:10405000A281B381892B8A2B8B2B89F0EE85FF857A
:10406000EA0DFB1D31972B8120838E859F8502975A
:104070008E879F87FC01EA0DFB1D80E38083EE8124
:10408000FF81EF2B59F02E853F85215031092E8776
:104090003F87F901EA0DFB1D80E28083F601408530
:1040A0005185415051092E853F85421B530BB90163
:1040B0006A0D7B1D9401C1010E944F309C01F101EA
:1040C0008081918190FF06C0F601828193818217E1
:1040D00093070CF4C9012F96E2E10C94DE33CF92E2
:1040E000DF92EF92FF92CF93DF93CDB7DEB72B979E
:1040F000CDBFDEBF8A879B8719821A821B821C82F2
:104100008DEC9CECACECBDE38D839E83AF83B887D4
:1041100019868A859B85892B39F08A859B85FC01C8
:104120008081882309F090C080E090E0DC0197C096
:104130008A859B85FC018081803330F08A859B8550
:10414000FC0180818A3350F08A859B85FC01808147
:104150008E3221F080E090E0DC0181C08A859B8571
:10416000FC0180818E3219F481E0898768C08985DD
:10417000882361F520E030E040E251E469817A81F2
:104180008B819C810E940F39DC01CB016C017D0188
:104190008A859B85FC018081882F90E0C097092E3D
:1041A000000CAA0BBB0BBC01CD010E942B2FDC0124
:1041B000CB019C01AD01C701B6010E94CF38DC01E3
:1041C000CB0189839A83AB83BC8339C08A859B8565
:1041D000FC018081882F90E0C097092E000CAA0B6B
:1041E000BB0BBC01CD010E942B2FDC01CB012D812B
:1041F0003E814F815885BC01CD010E940F39DC0101
:10420000CB019C01AD0169817A818B819C810E94E7
:10421000CF38DC01CB0189839A83AB83BC832DEC3F
:104220003CEC4CEC5DE36D817E818F8198850E9432
:104230000F39DC01CB018D839E83AF83B8878A85DC
:104240009B8501968A879B878A859B85FC01808157
:10425000882309F06DCF89819A81AB81BC81BC0133
:10426000CD012B96CDBFDEBFDF91CF91FF90EF90B8
:10427000DF90CF900895CF93DF93CDB7DEB7269729
:10428000CDBFDEBF8D839E831982B3C08981282F65
:1042900030E0C901880F991F820F931F815C9449F8
:1042A0008B839C838981882321F48091AC6B8A83E2
:1042B00003C08091AD6B8A838B819C81FC019081CE
:1042C0008A819817D1F08B819C812A81FC012083FF
:1042D0008B819C8121E0FC0121838A81882F90E0E1
:1042E000880F991F8A5D9449FC0190818D81890F07
:1042F000282F8B819C81FC0122838B819C81FC0176
:104300008281982F8D81F92FF81B8F2F282F8B8179
:104310009C81FC0122838B819C81FC018281181687
:104320000CF43EC08B819C81FC0181818823E1F0EB
:104330008B819C81FC018081882F90E0880F991FE0
:10434000895D9449FC018081282F8B819C81FC012F
:1043500022838B819C81FC01828118160CF58B8154
:104360009C81FC0111821CC08B819C81FC0180819D
:10437000882F90E0880F991F8A5D9449FC01808105
:10438000282F8B819C81FC0122838B819C81FC01E5
:10439000828118162CF48B819C8121E0FC01218301
:1043A0008981882391F48B819C81FC018181882300
:1043B00031F085E694E022E0FC01208317C086E618
:1043C00094E022E0FC01208311C08B819C81FC01E0
:1043D0008181882331F085E694E024E0FC0120838C
:1043E00005C086E694E024E0FC01208389818F5F8C
:1043F00089838981823008F449CF00002696CDBF99
:10440000DEBFDF91CF910895CF93DF93CDB7DEB7B5
:104410002597CDBFDEBF0E94DE360E9496330E94F4
:10442000851B80E490E0FC018081882F90E08870FB
:104430009927892B71F08091EB689091EC68803A14
:104440009B4539F081E0809344688BE08093BE689F
:1044500004C0109244681092BE681092EB681092EB
:10446000EC6880E490E020E430E0F9012081FC0178
:1044700020831A828091A86B882351F08091A86BC9
:1044800089831092A86B9A818981890F8A8301C0E0
:10449000198289810E94CD228B838B81813079F4AE
:1044A0008091AB6B882F90E021E0892B09F420E00C
:1044B00081E08227882F90E081708093AB6B8B81A5
:1044C000833019F481E08093AB6B8B81843011F4DD
:1044D0001092AB6B8B81823051F58091C668882336
:1044E00031F14091C9685091CA6828E532E0429F95
:1044F000C001439F900D529F900D11248C839D838A
:104500002091C7683091C8688C819D81820F931F6C
:104510008F3F9F4760F42091C7683091C8688C81B5
:104520009D81820F931F8093C7689093C868809184
:10453000B06B882F90E0AC0162E370E085E898E60C
:104540000E94EF268C839D838C819D81019649F486
:1045500085E898E60E94BA081092B06B10928568C0
:1045600003C08C818093B06B8981882F90E00E947A
:1045700032168981882F90E00E943B2189810E9418
:104580007C2B8A81863008F475CF8091AE6B8823AE
:1045900009F070CFA8951A826DCFCF93DF930F9259
:1045A000CDB7DEB789839091C46881E089278823DD
:1045B00091F01092A36B1092A46B8CE090E0FC0140
:1045C0008281882F90E081709927892B11F084E0F7
:1045D0008EC083E08CC09091A46B8981890F8093F9
:1045E000A46B8091A36B882F90E082309105C1F17C
:1045F000833091052CF4009759F00197D1F06BC0EE
:104600008330910509F443C0049709F457C063C08F
:104610008CE090E0FC018281882F90E081709927E6
:10462000892B09F05AC01092A46B81E08093A36B90
:1046300054C08091A46B882309F451C08CE090E0B1
:10464000FC018281882F90E081709927892B21F4C9
:1046500082E08093A36B43C083E08093A36B3FC051
:104660008CE090E0FC018281882F90E08170992796
:10467000892B49F48091A46B883098F184E0809371
:10468000A36B81E034C083E08093A36B2AC0809148
:10469000A46B883020F01092A36B81E028C08CE0DE
:1046A00090E0FC018281882F90E081709927892B0E
:1046B000D1F484E08093A36B82E019C08CE090E099
:1046C000FC018281882F90E081709927892B69F005
:1046D0001092A36B0AC08FEF0AC0000007C0000051
:1046E00005C0000003C0000001C0000080E00F9082
:1046F000DF91CF9108951F920F920FB60F92112460
:104700002F933F934F935F936F937F938F939F93D9
:10471000AF93BF93EF93FF93CF93DF93CDB7DEB704
:104720008CE090E0FC018381882F90E081709927D4
:10473000892B31F08091786B9091796BFC01099510
:104740008CE090E0FC018381882F90E080719927B4
:10475000892B31F080917A6B90917B6BFC010995EC
:104760008CE090E0FC018381882F90E08072992793
:10477000892B31F080917C6B90917D6BFC010995C8
:104780008CE090E0FC018381882F90E08074992771
:10479000892B31F080917E6B90917F6BFC010995A4
:1047A0008CE090E0FC018381882334F48091806B5D
:1047B0009091816BFC0109958CE090E0FC01838174
:1047C000882F90E082709927892B31F08091846B3B
:1047D0009091856BFC0109958CE090E0FC01838150
:1047E000882F90E084709927892B31F08091866B17
:1047F0009091876BFC0109958CE090E0FC0183812E
:10480000882F90E088709927892B31F08091886BF0
:104810009091896BFC0109958CE090E02FEFFC01F1
:1048200023830000DF91CF91FF91EF91BF91AF9172
:104830009F918F917F916F915F914F913F912F91B8
:104840000F900FBE0F901F9018951F920F920FB6EA
:104850000F9211242F933F934F935F936F937F9306
:104860008F939F93AF93BF93EF93FF93CF93DF9378
:10487000CDB7DEB780E090E0FC018381882F90E027
:1048800082709927892B31F08091666B9091676BCC
:10489000FC01099580E090E0FC018381882F90E085
:1048A00081709927892B31F08091686B9091696BA9
:1048B000FC01099580E090E0FC018381882F90E065
:1048C00088709927892B31F080916A6B90916B6B7E
:1048D000FC01099580E090E0FC018381882F90E045
:1048E00080749927892B31F080916C6B90916D6B5E
:1048F000FC01099580E090E0FC018381882334F479
:1049000080916E6B90916F6BFC01099580E090E057
:10491000FC018381882F90E080729927892B31F0E8
:104920008091826B9091836BFC01099580E090E00F
:104930002FEFFC0123830000DF91CF91FF91EF91D6
:10494000BF91AF919F918F917F916F915F914F91A7
:104950003F912F910F900FBE0F901F901895CF92FF
:10496000DF92EF92FF920F931F93CF93DF93CDB718
:10497000DEB72897CDBFDEBF8D839E836F83788798
:104980008D819E81892B29F419821A821B821C82B7
:1049900046C08D819E81CC01A0E0B0E0BC01CD017C
:1049A0000E94292F7B018C018F819885FC0181A1B8
:1049B00092A1A3A1B4A19C01AD01C801B7010E94BD
:1049C0000F39DC01CB016C017D018F819885FC01E1
:1049D00085A196A1092E000CAA0BBB0BBC01CD0131
:1049E0000E942B2FDC01CB019C01AD01C701B60158
:1049F0000E94CF38DC01CB0189839A83AB83BC83CF
:104A000020E030E0A90169817A818B819C810E943C
:104A1000FD38882324F419821A821B821C8220E02C
:104A200030E040E05FE369817A818B819C810E9464
:104A3000CF38DC01CB01BC01CD010E941A31DC0171
:104A4000CB012896CDBFDEBFDF91CF911F910F9193
:104A5000FF90EF90DF90CF9008958F929F92AF924A
:104A6000BF92CF92DF92EF92FF920F931F938B0131
:104A70009C0157E136952795179507955A95D1F7DB
:104A80001127A8014F575109473151050CF045C076
:104A900057FD2DC00FEF1FEF2FE730E004C0359515
:104AA0002795179507954A95D2F74801590186220F
:104AB0009722A822B92289288A288B2871F197FF8A
:104AC00007C0DC01CB01800F911FA21FB31F02C0E2
:104AD000DC01CB0100951095209530958023912322
:104AE000A223B323482F392F2A2F5B2F1AC097FFF9
:104AF0000FC08B019C01000F111F221F331F012BC0
:104B0000022B032B51F040E030E020E85FEB09C0BE
:104B100040E030E020E050E004C0462F372F282F3F
:104B2000592F642F732F822F952F1F910F91FF9074
:104B3000EF90DF90CF90BF90AF909F908F900895AF
:104B4000A2E0B0E0E6EAF5E20C947D333C016B01B3
:104B5000FB0122813381A480B5808081918189838A
:104B60009A8386809780FA0120803180428053802A
:104B7000B201A10157FE07C044275527BA014219C7
:104B800053096409750937FD03C08D7F89839A83B2
:104B9000950157FC05C0898182FD02C083FF02C0D8
:104BA00021503109CE0101967C010AE010E0C601D6
:104BB0000E94FE2857FC03C0298122FF0AC00197EA
:104BC000F401E80FF91F57FC02C02BE209C02DE2E7
:104BD00007C023FF06C00197F401E80FF91F20E288
:104BE000208309811A81F601408551854150510980
:104BF000481B590BB401680F791F9501C3010E942E
:104C00004F309C01F3018081918190FF06C0F60135
:104C100082819381821793070CF4C9012296E2E105
:104C20000C94DE3310C00E94E33858F00E94DC3848
:104C300040F029F45F3F29F00C94F73851110C949F
:104C4000EB380C941B390E94893268F39923B1F335
:104C5000552391F3951B550BBB27AA2762177307A2
:104C6000840738F09F5F5F4F220F331F441FAA1F36
:104C7000A9F335D00E2E3AF0E0E832D091505040F2
:104C8000E695001CCAF72BD0FE2F29D0660F771FA0
:104C9000881FBB1F261737074807AB07B0E809F086
:104CA000BB0B802DBF01FF2793585F4F3AF09E3F0B
:104CB000510578F00C94F7380C94EB385F3FE4F32F
:104CC000983ED4F3869577956795B795F7959F5F4E
:104CD000C9F7880F911D9695879597F90895E1E09A
:104CE000660F771F881FBB1F621773078407BA07F9
:104CF00020F0621B730B840BBA0BEE1F88F7E09554
:104D000008951F920F920FB60F9211242F933F9385
:104D10004F935F936F937F938F939F93AF93BF93C3
:104D2000EF93FF93CF93DF93CDB7DEB788E090E0AA
:104D3000FC018381882F90E081709927892B31F0C5
:104D40008091706B9091716BFC01099588E090E007
:104D5000FC018381882F90E082709927892B31F0A4
:104D60008091726B9091736BFC01099588E090E0E3
:104D7000FC018381882F90E084709927892B31F082
:104D80008091746B9091756BFC01099588E090E0BF
:104D9000FC018381882F90E088709927892B31F05E
:104DA0008091766B9091776BFC01099588E090E09B
:104DB0002FEFFC0123830000DF91CF91FF91EF9152
:104DC000BF91AF919F918F917F916F915F914F9123
:104DD0003F912F910F900FBE0F901F901895CF937A
:104DE000DF93CDB7DEB72797CDBFDEBF8A839B8326
:104DF0006C837D834E835F8352C00E9430378983EA
:104E00008E819F81892B21F489818F3209F047C0DF
:104E10008E819F819C012F5F3F4F2E833F839C019A
:104E20008A819B81820F931F2981FC0120838981C4
:104E30008D3059F58E819F81059704F18A819B8180
:104E4000FC0180818F32D1F48E819F819C012F5F84
:104E50003F4F2E833F839C018A819B81820F931F4A
:104E60002981FC0120838E819F812A813B81820FD1
:104E7000931FFC0110828FEF9FEF18C08A819B81E6
:104E8000FC01108280E090E011C02E813F818C8176
:104E90009D812817390719F480E090E007C00E942F
:104EA0000B33882309F0A9CF8E819F812796CDBF30
:104EB000DEBFDF91CF9108950FC00E94DC3838F03B
:104EC0000E94E33820F0952311F00C94F7380C94ED
:104ED0001B3911240C94EB380E94893270F3959F92
:104EE000C1F3950F50E0551F629FF001729FBB27E1
:104EF000F00DB11D639FAA27F00DB11DAA1F649F7D
:104F00006627B00DA11D661F829F2227B00DA11D2F
:104F1000621F739FB00DA11D621F839FA00D611DB5
:104F2000221F749F3327A00D611D231F849F600DD6
:104F3000211D822F762F6A2F11249F5750409AF0FF
:104F4000F1F088234AF0EE0FFF1FBB1F661F771F8B
:104F5000881F91505040A9F79E3F510580F00C9456
:104F6000F7380C94EB385F3FE4F3983ED4F3869522
:104F700077956795B795F795E7959F5FC1F7FE2BF6
:104F8000880F911D9695879597F90895CF93DF9394
:104F9000CDB7DEB72597CDBFDEBF8C839D83198249
:104FA0001A821B828C819D81892B31F08C819D819D
:104FB000FC018081882319F480E090E04AC08C8154
:104FC0009D81FC0180818D3291F581E08B838C8104
:104FD0009D8101968C839D832AC08C819D81FC01DB
:104FE0008081803330F08C819D81FC0180818A3307
:104FF00018F080E090E02DC089819A81880F991F78
:105000009C01220F331F220F331F280F391F8C8161
:105010009D81FC018081882F90E0820F931FC097B3
:1050200089839A838C819D8101968C839D838C8159
:105030009D81FC018081882381F68B81882339F052
:1050400089819A8191958195910989839A83898132
:105050009A812596CDBFDEBFDF91CF910895CF9382
:10506000DF93DC01F90168387105F1F05CF4613817
:10507000710561F164387105A1F16038710509F0BD
:1050800051C02FC0603C710509F441C0603F7105FB
:10509000F1F1603A710509F045C0C081D181CE01BE
:1050A00002968083918325C0C081D181CE01029672
:1050B00080839183452B39F04881042E000C550BD9
:1050C000660B770B1CC0488150E029C0C081D1819C
:1050D000CE01049680839183488159816A817B81C6
:1050E0000EC0C081D181CE01029680839183452B71
:1050F000A1F048815981052E000C660B770B4D936A
:105100005D936D937C93139781E090E00DC0C08117
:10511000D181CE010296808391834881598160E0DC
:1051200070E0EDCF80E090E0DF91CF91089511C065
:105130000E94DC3838F00E94E33820F039F49F3FB9
:1051400019F426F40C941B390EF4E095E7FB0C944B
:10515000F738E92F0E94893258F3BA1762077307AC
:105160008407950720F079F4A6F50C94EA380EF43C
:10517000E0950B2EBA2FA02D0B01B90190010C0167
:10518000CA01A0011124FF27591B99F0593F50F47F
:10519000503E68F11A16F040A22F232F342F4427D7
:1051A000585FF3CF469537952795A795F0405395CF
:1051B000C9F77EF41F16BA0B620B730B840BBAF09F
:1051C0009150A1F0FF0FBB1F661F771F881FC2F70A
:1051D0000EC0BA0F621F731F841F48F4879577951E
:1051E0006795B795F7959E3F08F0B0CF9395880FD8
:1051F00008F09927EE0F979587950895A0E0B0E005
:10520000E4E0F9E20C947F33DC0128011696AD90BE
:10521000BC901797F701808191811296ED91FC91D6
:1052200013971896CD91DC9119972197F7FF02C03B
:10523000E1E0F0E0CA0DDB1D18826901A1E0B0E0F9
:105240008F01021B130B4C01F2E08F229924052CD5
:10525000000C66087708CE018A199B09CA15DB0580
:1052600019F1411551056105710589F0CB01BA01AC
:10527000A30192010E946732CA01A62FB72F605D79
:105280006A9341E0C41AD108A901BC01E4CF980196
:105290002C0D3D1D121613064CF31C141D0434F482
:1052A0008114910419F702C080E090E0AB2B31F437
:1052B000F701208131812F7E20833183CDB7DEB786
:1052C000E0E10C94E033EF92FF920F931F93CF93A2
:1052D000DF93CDB7DEB72897CDBFDEBF8D839E832A
:1052E0006F8378878F819885FC0185A196A19C01A9
:1052F0008D819E81821B930BCC01A0E0B0E0BC01AC
:10530000CD010E94292F7B018C018F819885FC01A2
:1053100081A192A1A3A1B4A19C01AD01C801B701D3
:105320000E940B39DC01CB0189839A83AB83BC8358
:1053300020E030E0A90169817A818B819C810E9403
:10534000FD38882324F419821A821B821C8220E0F3
:1053500030E040E05FE369817A818B819C810E942B
:10536000CF38DC01CB01BC01CD010E941A31DC0138
:10537000CB012896CDBFDEBFDF91CF911F910F915A
:10538000FF90EF9008951F920F920FB60F92112485
:105390002F933F934F935F936F937F938F939F933D
:1053A000AF93BF93EF93FF93CF93DF93CDB7DEB768
:1053B00080E09BE0FC018681882F90E08170992736
:1053C000892B89F080918C6B90918D6B892B31F0BA
:1053D00080918C6B90918D6BFC01099580E09BE036
:1053E00021E0FC01268380E09BE0FC018681882F80
:1053F00090E082709927892B89F080918A6B909137
:105400008B6B892B31F080918A6B90918B6BFC01B7
:10541000099580E09BE022E0FC0126830000DF91FB
:10542000CF91FF91EF91BF91AF919F918F917F911C
:105430006F915F914F913F912F910F900FBE0F9001
:105440001F901895A2E0B0E0E8E2FAE20C948133F4
:105450004C016B01FB012281338164807580808166
:10546000918189839A83A680B78037FD03C08D7FA1
:1054700089839A83FA014081518162817381CE01CF
:1054800001967C0108E010E09301C6010E94FE280D
:10549000298124FF06C00197F501E80FF91F20E3D9
:1054A0002083298123FF06C00197F501E80FF91F2A
:1054B00020E2208309811A81F601408551854150FF
:1054C0005109481B590BB501680F791F9301C4019D
:1054D0000E944F309C01F4018081918190FF06C0B1
:1054E000F60182819381821793070CF4C9012296F9
:1054F000EEE00C94E233CF92DF92EF92FF92CF93E3
:10550000DF93CDB7DEB72A97CDBFDEBF6D837E8335
:105510008F83988749875A876D817E818F8198858F
:105520000E942B2F6B017C0189859A85FC0181A14A
:1055300092A1A3A1B4A129853A85F90121A132A1A3
:1055400043A154A1BC01CD010E940F39DC01CB0164
:105550009C01AD01C701B6010E940B39DC01CB01F2
:1055600089839A83AB83BC8320E030E040E05FE333
:1055700069817A818B819C810E94CF38DC01CB01CB
:10558000BC01CD010E94D538DC01CB01BC01CD01AD
:105590002A96CDBFDEBFDF91CF91FF90EF90DF90D5
:1055A000CF900895CF93DF93CDB7DEB72997CDBFC6
:1055B000DEBF8E839F836887798788859985029768
:1055C00010F480E03EC08E819F818C839D8381E0BA
:1055D00089831A821B8211C02C813D818A819B8123
:1055E000820F931FFC0180818F3F11F019820CC044
:1055F0008A819B8101968A839B832A813B8188854E
:1056000099852817390740F38981882311F080E0B4
:1056100018C0888599859C01215031098E819F8110
:10562000B9010E941E2E482F8885998501972C81EB
:105630003D81820F931FFC01908181E0491709F0A1
:1056400080E02996CDBFDEBFDF91CF910895CF9343
:10565000DF93CDB7DEB72A97CDBFDEBF8F839887A4
:1056600069877A8781E090E089839A831B821C8214
:1056700089859A85059758F18FEF9FEF37C08F8105
:1056800098859C012F5F3F4F2F833887FC018081D5
:105690000E9449318D839E838D819E81019619F4EC
:1056A0008FEF9FEF23C08B819C819C0122953295C7
:1056B000307F3227207F32278D819E81820F931F7A
:1056C0008B839C8389819A81019689839A8329811E
:1056D0003A8189859A858217930730F08F81988562
:1056E000FC018081882359F68B819C812A96CDBF4D
:1056F000DEBFDF91CF910895CF93DF930F92CDB7A7
:10570000DEB789838981882351F08091A26B82332F
:1057100030F49091A26B8981890F8093A26B809164
:10572000A66B8823C1F18091A26B8233A0F1109205
:10573000AA6B00008091AA6B8823E1F38091146822
:10574000909115680E9488308932934224F167E273
:1057500070E08CE198E60E941E2E8093436848E238
:1057600050E060E070E08CE198E60E94A72E64E0D3
:1057700070E087EB98E60E941E2E8093BB6845E0A0
:1057800050E068E270E087EB98E60E94A72E109246
:10579000A66B1092A26B00000F90DF91CF9108953D
:1057A000CF93DF9300D000D0CDB7DEB78B839C833F
:1057B00019821A828B819C81892B31F08B819C818B
:1057C000FC018081882369F580E090E032C08B8104
:1057D0009C81FC018081803330F08B819C81FC01B5
:1057E00080818A3318F080E090E023C089819A811B
:1057F000880F991F9C01220F331F220F331F280F80
:10580000391F8B819C81FC018081882F90E0820F61
:10581000931FC09789839A838B819C8101968B8388
:105820009C838B819C81FC018081882381F6898106
:105830009A812496CDBFDEBFDF91CF9108951F934B
:10584000CF93DF9300D000D0CDB7DEB789839A83A2
:105850006B837C831BC089819A81FC0180810E94BB
:105860001435182F8B819C81FC0180810E94143596
:10587000181711F080E028C089819A8101968983E8
:105880009A838B819C8101968B839C8389819A81E9
:10589000FC018081882331F08B819C81FC01808117
:1058A0008823C9F689819A81FC018081882349F483
:1058B0008B819C81FC018081882319F481E090E038
:1058C00002C080E090E081702496CDBFDEBFDF9102
:1058D000CF911F9108950F931F93CF93DF93DB0117
:1058E000109719F48FEF9FEF3DC02D913C911197C8
:1058F00030FF25C016964D915C91179714962D9107
:105900003C9115974217530778F41296ED91FC914C
:105910001397808312962D913C9113972F5F3F4FE1
:1059200012962D933C93139716962D913C911797B1
:105930002F5F3F4F16962D933C93179713C01C96DD
:10594000ED91FC911D97309769F2EB01092F182F0B
:105950000995892B39F68E819F8101968E839F83CD
:10596000812F902FDF91CF911F910F910895CF93A9
:10597000DF93CDB7DEB760E080E690E00E9496341A
:1059800061E081E690E00E94963460E088E790E074
:105990000E94963460E088E690E00E94963460E0D1
:1059A00089E690E00E94963460E08CE790E00E94E7
:1059B000963460E082E690E00E94963460E083E6F0
:1059C00090E00E94963460E084E690E00E94963475
:1059D00060E080E890E00E9496346AE086E690E01D
:1059E0000E949634000080E690E0FC018581882FBB
:1059F00090E082709927892BB1F30000DF91CF915D
:105A00000895CF93DF93CDB7DEB780E096E0FC0139
:105A1000118280E096E021E0FC01218780E096E0A1
:105A200025E0FC01228380E096E0FC01138280E007
:105A300096E029E1FC01208780E096E0FC011386D6
:105A400080E096E0FC01178280E096E020E4FC0113
:105A5000228780E096E0FC01148280E096E02CE151
:105A6000FC01248780E096E020E3FC01258780E0AC
:105A700096E0FC01168E178E80E096E0FC01148EF5
:105A8000158E80E096E021E0FC01208380E0DF912C
:105A9000CF910895CF93DF93CDB7DEB780E098E044
:105AA00026E430E1FC012087318780E098E029E09E
:105AB000FC01258380E098E028ECFC01268380E04F
:105AC00098E023E0FC01278380E098E0FC01138646
:105AD00080E098E0FC01148680E098E0FC011686E6
:105AE00080E098E0FC0115868EE898E30E94F6338A
:105AF00086E998E30E940D348EE998E30E942434ED
:105B000010928E6B10928F6B80919E6B90919F6B19
:105B10002BEE3AE6FC01208331830000DF91CF9128
:105B20000895A2E0B0E0E7E9FDE20C9481335C0166
:105B30006B01FB012281338184809580808191817A
:105B400089839A836680778037FD03C08D7F898340
:105B50009A83FA014081518162817381CE0101965D
:105B60007C010AE010E09401C6010E94FE28098130
:105B70001A81F6014085518541505109481B590B46
:105B8000B301680F791F9401C5010E944F309C0139
:105B9000F5018081918190FF06C0F6018281938199
:105BA000821793070CF4C9012296EEE00C94E233BD
:105BB000CF93DF93CDB7DEB780E498E026E430E101
:105BC000FC012087318780E498E0FC01158280E4A5
:105BD00098E020ECFC01268380E498E023E0FC01BF
:105BE000278380E498E0FC01138680E498E0FC01C0
:105BF000148680E498E0FC01168680E498E0FC01BD
:105C0000158686EA98E30E943B348EEA98E30E9468
:105C1000523486EB98E30E9469341092966B10928E
:105C2000976B80919E6B90919F6B2BEF3AE6FC01F6
:105C3000208331830000DF91CF910895CF93DF93CC
:105C4000CDB7DEB72A97CDBFDEBF8F839887698730
:105C50007A878F8198858D839E8319821A821B8211
:105C600024C02D813E818A819B81820F931FFC017C
:105C700080819981892789831C820FC0898188232B
:105C800034F48981982F990F87E0892702C0898190
:105C9000880F89838C818F5F8C838C81883070F32F
:105CA0008A819B8101968A839B832A813B81898596
:105CB0009A8528173907A8F289812A96CDBFDEBFB9
:105CC000DF91CF9108951F920F920FB60F9211247A
:105CD0002F933F934F935F936F937F938F939F93F4
:105CE000AF93BF93EF93FF93CF93DF93CDB7DEB71F
:105CF00080E096E020E2FC01258380E096E020E150
:105D0000FC01258380E096E028E0FC01258380915A
:105D1000646B9091656B892B31F08091646B9091ED
:105D2000656BFC0109950000DF91CF91FF91EF9128
:105D3000BF91AF919F918F917F916F915F914F91A3
:105D40003F912F910F900FBE0F901F901895A0E0DC
:105D5000B0E0EDEAFEE20C948733C8E00FEF15E106
:105D6000DDE925E1F22E4115510579F1262F277045
:105D70003C2F321B232F30E04217530708F49A01BF
:105D8000D22EF801E21BF30BE617F70710F40E947E
:105D90001739E0910610E0FDFCCFC82EDB01BC5E98
:105DA000FC01E0900610E0FCFCCFE190ED92EE2EBD
:105DB000EC18ED14B0F3D4BFF0920010820F931FD3
:105DC000620F731F421B530BCECFCDB7DEB7E8E097
:105DD0000C94E833CF93DF93CDB7DEB780E09BE040
:105DE00020E03BE0F90120812E7FFC01208380E050
:105DF0009BE0FC01118280E09BE0FC01108680E0CA
:105E00009BE0FC01148280E09BE028E833E1FC0188
:105E10002487358780E09BE0FC011286138680E0B2
:105E20009BE0FC01168286E898E30E94A63688E78C
:105E30009EE10E94B93680E09BE021E0FC012583D1
:105E400080E09BE023E0FC0120830000DF91CF9104
:105E50000895E89409C097FB3EF49095809570955D
:105E600061957F4F8F4F9F4F9923A9F0F92F96E9A6
:105E7000BB279395F695879577956795B795F1111B
:105E8000F8CFFAF4BB0F11F460FF1BC06F5F7F4FB8
:105E90008F4F9F4F16C0882311F096E911C07723CA
:105EA00021F09EE8872F762F05C0662371F096E8D3
:105EB000862F70E060E02AF09A95660F771F881FA2
:105EC000DAF7880F9695879597F90895A2E8B0E0DC
:105ED000ECE6FFE20C9483335C014A01CF57DF4FBD
:105EE00068837983C158D040C12CD12CCF57DF4F64
:105EF000E881F981C158D04080818823E9F074019C
:105F0000860120E830E0AE014F5F5F4FBE016F5762
:105F10007F4FC5010E9487198C0D9D1D8C159D0515
:105F20004CF48FE490E08093E9689093EA688FEFF7
:105F30009FEF03C06C01DACFC601CE57DF4FECE014
:105F40000C94E4331F920F920FB60F9211242F93EB
:105F50003F934F935F936F937F938F939F93AF93F1
:105F6000BF93EF93FF93CF93DF93CDB7DEB780E07E
:105F700096E022E0FC0125838091606B9091616B3B
:105F8000892B31F08091606B9091616BFC010995D8
:105F90000000DF91CF91FF91EF91BF91AF919F9161
:105FA0008F917F916F915F914F913F912F910F90C2
:105FB0000FBE0F901F9018951F920F920FB60F9261
:105FC00011242F933F934F935F936F937F938F93FE
:105FD0009F93AF93BF93EF93FF93CF93DF93CDB78F
:105FE000DEB780E096E021E0FC0125838091626BC2
:105FF0009091636B892B31F08091626B9091636B10
:10600000FC0109950000DF91CF91FF91EF91BF91C5
:10601000AF919F918F917F916F915F914F913F9140
:106020002F910F900FBE0F901F901895CF93DF9375
:10603000CDB7DEB72897CDBFDEBF8B839C836D8342
:106040007E834F83588719821A821AC089819A8168
:10605000880F991F2D813E81820F931FFC012081A3
:1060600031818B819C81B9010E941F2C882319F0FA
:1060700089819A810EC089819A81019689839A8348
:1060800029813A818F81988528173907FCF28FEF93
:106090009FEF2896CDBFDEBFDF91CF910895A0E09E
:1060A000B0E0E5E5F0E30C9483336C015B017A0129
:1060B000E901480181E08822992400FD03C04217CC
:1060C000530750F0A701B501C6010E942833EC1612
:1060D000FD0610F0C70117C08E010E191F0901152A
:1060E000110541F0B60180E290E00E946B2C015056
:1060F0001109F5CF8114910429F4A701B501C60156
:106100000E942833CE01CDB7DEB7ECE00C94E43327
:10611000CF93DF93CDB7DEB72697CDBFDEBF8D839C
:106120009E838D819E81092E000CAA0BBB0BBC01A6
:10613000CD010E942B2FDC01CB0120E030E040EAB2
:1061400050E4BC01CD010E940F39DC01CB018983F1
:106150009A83AB83BC8369817A818B819C810E9405
:10616000D538DC01CB012696CDBFDEBFDF91CF91C4
:106170000895CF93DF93CDB7DEB72697CDBFDEBFAF
:106180008D839E838D819E81092E000CAA0BBB0BF3
:10619000BC01CD010E942B2FDC01CB0189839A83A6
:1061A000AB83BC8320E030E040EA50E469817A812F
:1061B0008B819C810E940B39DC01CB01BC01CD019C
:1061C0000E94D538DC01CB012696CDBFDEBFDF9122
:1061D000CF910895CF93DF930F92CDB7DEB7898328
:1061E00080E096E020E036E0F9012485207CFC0187
:1061F000248780E096E020E036E0F90134852981AB
:10620000232BFC01248780E096E020E036E0F901B2
:1062100022852F77FC01228780E096E020E036E09F
:10622000F90122852160FC01228700000F90DF9197
:10623000CF9108950E94913288F09F5798F0B92F1E
:106240009927B751B0F0E1F0660F771F881F991FAB
:106250001AF0BA95C9F714C0B13091F00E94EA382B
:10626000B1E008950C94EA38672F782F8827B85F3B
:1062700039F0B93FCCF3869577956795B395D9F703
:106280003EF490958095709561957F4F8F4F9F4F0D
:106290000895CF93DF930F92CDB7DEB789838981BD
:1062A000803340F089818A3328F48981882F90E0F7
:1062B000C09719C08981813440F08981873428F4DE
:1062C0008981882F90E0C7970EC08981813648F078
:1062D0008981873630F48981882F90E0875591092C
:1062E00002C08FEF9FEF0F90DF91CF910895DC01F7
:1062F000ED91FC91119780818A3221F080E090E04D
:106300003AE00EC03196ED93FC93DB01ED91FC91E8
:106310001197CF0102968D939C938081918108956E
:10632000ED91FC911197208120532A3068F4389F19
:10633000A001399F500D1124CA01820F911D319681
:10634000ED93FC931197ECCF0895CF93DF93CDB7E6
:10635000DEB72597CDBFDEBF8D838D810E94EA30E9
:1063600000000E94D834982F81E089278823C9F73C
:106370000E940037DC01CB0189839A83AB83BC8305
:1063800080E096E021E0FC01258389819A81AB8140
:10639000BC81BC01CD012596CDBFDEBFDF91CF9181
:1063A0000895A0E0B0E0E7EDF1E30C9485337C01C3
:1063B000FB01EA01C901A280B380C480D5800081BD
:1063C0001181209711F4C8E3DBE6009719F4CE01A0
:1063D0000E948937B7FC04C0A816B90608F4C501A5
:1063E0009601AC01BE01C7010E944F30CDB7DEB7A8
:1063F000EAE00C94E633CF93DF93CDB7DEB72FEB13
:1064000087E299E0215080409040E1F700C0000011
:1064100080E090E0FC018281882F90E082709927D3
:10642000892B31F081E08093B16B0E94D82D04C09C
:106430001092B16B0E944A2D0000DF91CF91089518
:10644000990F0008550FAA0BE0E8FEEF1616170685
:10645000E807F907C0F012161306E407F50798F0ED
:10646000621B730B840B950B39F40A2661F0232B06
:10647000242B252B21F408950A2609F4A140A69582
:106480008FEF811D811D0895CF93DF930F92CDB7BC
:10649000DEB789838981882359F085E094E020E282
:1064A000FC01208384E08093AC6B1092AD6B0AC03A
:1064B00086E094E020E2FC0120831092AC6B81E046
:1064C0008093A66B00000F90DF91CF910895A1E219
:1064D0001A2EAA1BBB1BFD010DC0AA1FBB1FEE1F5E
:1064E000FF1FA217B307E407F50720F0A21BB30BA9
:1064F000E40BF50B661F771F881F991F1A9469F725
:1065000060957095809590959B01AC01BD01CF0180
:10651000089557FD9058440F551F59F05F3F71F093
:106520004795880F97FB991F61F09F3F79F08795FA
:106530000895121613061406551FF2CF4695F1DF83
:1065400008C0161617061806991FF1CF8695710513
:106550006105089408951F920F920FB60F921124AF
:106560002F938F939F93EF93FF93CF93DF93CDB7A9
:10657000DEB784E190E02FEFFC0123830000DF9180
:10658000CF91FF91EF919F918F912F910F900FBE1F
:106590000F901F901895CF93DF93EC0190E0E92FB7
:1065A000F0E0EE0FFF1FEB52F5498081811102C030
:1065B00081810EC0A881B9812C91821305C091817F
:1065C0001196A883B98301C09F5F9B3040F3892F48
:1065D000DF91CF910895FA0160387105CCF06238EF
:1065E00071051CF06338710599F4A081B1819D019A
:1065F0002C5F3F4F208331834D915D916D917C9154
:10660000FC01408351836283738381E090E00895AD
:1066100080E090E00895CF93DF93CDB7DEB780910F
:10662000B16B882349F00E947B37882F90E021E0EE
:10663000892B51F420E008C00E946D37882F90E02C
:1066400021E0892B09F420E0822FDF91CF9108957A
:10665000A0E0B0E0EEE2F3E30C9487336C01EB01D1
:106660008A017B01E40EF51ECE15DF0541F089910C
:10667000B601082E000C990B0E946B2CF5CFC801B7
:10668000CDB7DEB7E8E00C94E833CF93DF9300D0CA
:106690000F92CDB7DEB789836A837B8300000E94A7
:1066A000EC34982F81E089278823C9F789810E94DB
:1066B000103780E090E02396CDBFDEBFDF91CF9111
:1066C0000895CF93DF9300D00F92CDB7DEB78983C3
:1066D0006A837B8300000E940035982F81E0892720
:1066E0008823C9F789810E94203780E090E02396B3
:1066F000CDBFDEBFDF91CF9108952F923F924F9291
:106700005F926F927F928F929F92AF92BF92CF9241
:10671000DF92EF92FF920F931F93CF93DF93CDB74A
:10672000DEB7CA1BDB0BCDBFDEBF0994CF93DF936F
:10673000CDB7DEB70E94B72C0E94561D0E94EA2EEC
:106740000E94012D0E9497370E94FB310E94CC3697
:106750000E94C2340000DF91CF910895A0E0B0E024
:10676000E4EBF3E30C948D33AE014B5F5F4FFA0122
:1067700061917191AF01E0919E6BF0919F6B80816F
:1067800091810E94C633E2E00C94EE33A2E0B0E0C7
:10679000ECECF3E30C948B338C0149835A83AE0108
:1067A0004F5F5F4F0E94662FF801208124FF02C0D7
:1067B0008FEF9FEF2296E4E00C94EC332A8839881F
:1067C00048885F846E847D848C849B84AA84B98489
:1067D000C884DF80EE80FD800C811B81AA81B98195
:1067E000CE0FD11DCDBFDEBFED010895CF93DF9356
:1067F00000D0CDB7DEB789839A8389819A81892BAE
:1068000031F089819A818093906B9093916B000015
:106810000F900F90DF91CF910895CF93DF9300D029
:10682000CDB7DEB789839A8389819A81892B31F02C
:1068300089819A818093926B9093936B00000F9063
:106840000F90DF91CF910895CF93DF9300D0CDB714
:10685000DEB789839A8389819A81892B31F0898176
:106860009A818093946B9093956B00000F900F909A
:10687000DF91CF910895CF93DF9300D0CDB7DEB7EE
:1068800089839A8389819A81892B31F089819A81C0
:106890008093986B9093996B00000F900F90DF910D
:1068A000CF910895CF93DF9300D0CDB7DEB7898322
:1068B0009A8389819A81892B31F089819A81809389
:1068C0009A6B90939B6B00000F900F90DF91CF918C
:1068D0000895CF93DF9300D0CDB7DEB789839A8335
:1068E00089819A81892B31F089819A8180939C6B6F
:1068F00090939D6B00000F900F90DF91CF910895C2
:10690000CF93DF9300D00F92CDB7DEB789839A8300
:106910006B8389819A814B8168ED0E940739000061
:106920002396CDBFDEBFDF91CF910895CF93DF9344
:1069300000D00F92CDB7DEB789839A836B838981AC
:106940009A814B8168ED0E94073900002396CDBFE4
:10695000DEBFDF91CF910895CF93DF9300D00F92E8
:10696000CDB7DEB789839A836B8389819A814B8106
:1069700068ED0E94073900002396CDBFDEBFDF918E
:10698000CF910895CF93DF93CDB7DEB760E080E17C
:1069900091E00E94AC3480E191E0FC01128280E140
:1069A00091E0FC011382789480E0DF91CF9108950B
:1069B000CF93DF93CDB7DEB780E096E0FC01858111
:1069C000882F90E08170992721E0892B09F420E03D
:1069D000822FDF91CF910895CF93DF93CDB7DEB7AC
:1069E00080E098E0FC018481882F90E080729927F4
:1069F00021E0892B09F420E0822FDF91CF910895C7
:106A0000CF93DF93CDB7DEB780E498E0FC018481BB
:106A1000882F90E08072992721E0892B09F420E0EB
:106A2000822FDF91CF910895CF93DF930F92CDB74F
:106A3000DEB789838981813630F089818B3718F4FC
:106A40008981805201C089810F90DF91CF91089593
:106A500097FB072E16F4009407D077FD09D00E940B
:106A60003C3507FC05D03EF4909581959F4F0895E5
:106A7000709561957F4F0895AA1BBB1B51E107C01C
:106A8000AA1FBB1FA617B70710F0A61BB70B881FBE
:106A9000991F5A95A9F780959095BC01CD0108954D
:106AA000CF93DF9300D0CDB7DEB789839A838981F6
:106AB0009A818093666B9093676B00000F900F90A4
:106AC000DF91CF910895CF93DF9300D0CDB7DEB79C
:106AD00089839A8389819A818093686B9093696B8B
